:100000000C945D000C9485000C9485000C94850084
:100010000C9485000C9485000C9485000C9485004C
:100020000C9485000C9485000C9485000C9485003C
:100030000C9485000C9485000C9485000C9485002C
:100040000C9427040C9485000C9497040C94710470
:100050000C9485000C9485000C9485000C9485000C
:100060000C94C9040C9485000000000800020100F3
:100070000003040700000000000000000000000072
:10008000250028002B0000000000240027002A0083
:10009000040404040404040402020202020203032E
:1000A0000303030301020408102040800102040836
:1000B0001020010204081020F30511241FBECFEF09
:1000C000D8E0DEBFCDBF11E0A0E0B1E0E4EFF1E1A8
:1000D00002C005900D92AC37B107D9F722E0ACE72A
:1000E000B1E001C01D92A13BB207E1F710E0CDE500
:1000F000D0E004C02197FE010E94ED08CC35D10765
:10010000C9F70E9449060C94F8080C94000090E08E
:10011000FC01EC55FF4F2491FC01E057FF4F849107
:10012000882399F090E0880F991FFC01EA57FF4F50
:10013000A591B491FC01E458FF4F859194918FB73C
:10014000F894EC91E22BEC938FBF089590E0FC01C2
:10015000E859FF4F2491FC01EC55FF4F3491FC010D
:10016000E057FF4FE491EE2309F43CC0222339F11C
:10017000233091F038F42130A9F0223001F584B514
:100180008F7D12C0273091F02830A1F02430B9F4CF
:10019000809180008F7D03C0809180008F77809355
:1001A00080000DC084B58F7784BD09C08091B000F8
:1001B0008F7703C08091B0008F7D8093B000F0E016
:1001C000EE0FFF1FE458FF4FA591B4919FB7F8942D
:1001D000611104C08C913095382302C0EC913E2B04
:1001E0003C939FBF08953FB7F8948091EC019091A4
:1001F000ED01A091EE01B091EF0126B5A89B05C0DD
:100200002F3F19F00196A11DB11D3FBFBA2FA92F95
:10021000982F8827820F911DA11DB11DBC01CD0112
:1002200042E0660F771F881F991F4A95D1F70895FE
:100230008F929F92AF92BF92CF92DF92EF92FF92F6
:100240006B017C010E94F3004B015C01C114D104DD
:10025000E104F104F1F00E94F300DC01CB01881904
:100260009909AA09BB09883E9340A105B10570F31D
:1002700021E0C21AD108E108F10888EE880E83E077
:10028000981EA11CB11CC114D104E104F10419F79A
:10029000DDCFFF90EF90DF90CF90BF90AF909F9019
:1002A0008F900895CF92DF92EF92FF920F931F935A
:1002B000CF93DF936C017A018B01C0E0D0E0CE15C3
:1002C000DF0581F0D8016D918D01D601ED91FC9192
:1002D0000190F081E02DC6010995892B11F021963E
:1002E000EECF7E01C701DF91CF911F910F91FF905B
:1002F000EF90DF90CF900895FC01538D448D252F12
:1003000030E0842F90E0821B930B541710F0CF96AF
:10031000089501970895FC01918D828D981761F0E1
:10032000828DDF01A80FB11D5D968C91928D9F5F2C
:100330009F73928F90E008958FEF9FEF0895FC01D7
:10034000918D828D981731F0828DE80FF11D858D8A
:1003500090E008958FEF9FEF0895FC01918D228D1D
:10036000892F90E0805C9F4F821B91098F739927A2
:10037000089580EF91E00E94AD0121E0892B09F4FE
:1003800020E0822F0895FC01848DDF01A80FB11DAC
:10039000A35ABF4F2C91848D90E001968F739927BB
:1003A000848FA689B7892C93A089B1898C91837099
:1003B00080648C93938D848D981306C00288F38992
:1003C000E02D80818F7D80830895EF92FF920F93BF
:1003D0001F93CF93DF93EC0181E0888F9B8D8C8DF1
:1003E000981305C0E889F989808185FD26C0F62E1D
:1003F0000B8D10E00F5F1F4F0F731127E02E8C8DB8
:10040000E8120CC00FB607FCFACFE889F9898081A1
:1004100085FFF5CFCE010E94C301F1CF8B8DFE0188
:10042000E80FF11DE35AFF4FF0829FB7F8940B8F4E
:10043000EA89FB89808180620AC09FB7F894EE89BF
:10044000FF896083E889F989808183708064808373
:100450009FBF81E090E0DF91CF911F910F91FF90BE
:10046000EF900895CF93DF93EC01888D8823C9F036
:10047000EA89FB89808185FD05C0A889B9898C91AD
:1004800086FD0FC00FB607FCF5CF808185FFF2CF48
:10049000A889B9898C9185FFEDCFCE010E94C30157
:1004A000E7CFDF91CF91089580E090E0892B29F08C
:1004B0000E94B90181110C940000089585ED80938C
:1004C000BC008091BC0084FDFCCF1092C101089556
:1004D00040919D01262F30E0240F311D213231053E
:1004E000DCF42091C1012430C9F4FC0180E090E0EB
:1004F000861758F430919D012191DC01A358BE4F1D
:10050000A30FB11D2C930196F3CF80919D01680F2D
:1005100060939D0180E0089581E0089582E0089550
:1005200008958FEF9FEF08958FEF9FEF08958091CB
:100530007C0190E09195819591090895CF93DF9387
:10054000CB01EA01642F0E946802CE01DF91CF91B6
:100550000895CF93DF931F92CDB7DEB7698361E033
:10056000CE0101960E94680281E090E00F90DF9139
:10057000CF910895CF93DF93EC0160E08E810E94CC
:10058000A60061E08E810E94A60060E08E810E943C
:10059000A6008BE891E00197F1F7DF91CF910895E4
:1005A000CF92DF92EF92FF920F931F93CF93DF933F
:1005B0006C017C0187E0E80EF11CC0E0D0E0062F62
:1005C00010E0B8010C2E02C0759567950A94E2F709
:1005D0006170F70181917F010E94A6002196C430CD
:1005E000D10579F7C601DF91CF911F910F91FF904F
:1005F000EF90DF90CF900C94BA02CF92DF92EF92FF
:10060000FF920F931F93CF93DF93EC01F62E642F8D
:100610008C810E94A6008D818F3F19F060E00E94BE
:10062000A6008F850F2D10E084FF25C06E0187E0A6
:10063000C80ED11CE12CF12CB8010E2C02C075950E
:1006400067950A94E2F76170F60181916F010E944B
:10065000A600FFEFEF1AFF0A88E0E816F10461F741
:10066000CE01DF91CF911F910F91FF90EF90DF901E
:10067000CF900C94BA02B80184E0759567958A957D
:10068000E1F7CE010E94D0026F2DCE01DF91CF9114
:100690001F910F91FF90EF90DF90CF900C94D002BC
:1006A00040E0682F89E992E00C94FD02CF93DF933C
:1006B000823028F09091A80298609093A8028093CD
:1006C000AC021092AD0280E48093AE0280E1809390
:1006D000AF0280E58093B00280919D020E94870066
:1006E00080919E028F3F11F00E94870080919F02AF
:1006F0000E948700C9E9D2E09E01295932408091C9
:10070000A80284FD03C084E090E002C088E090E08D
:1007100021962817390724F48E810E948700ECCF98
:100720008BE39DE00197F1F760E080919D020E94CC
:10073000A60060E080919F020E94A60080919E0228
:100740008F3F19F060E00E94A6008091A80284FD0E
:1007500020C063E089E992E00E94D002CBE4D6E4B5
:10076000CE010197F1F763E089E992E00E94D0029F
:100770002197F1F763E089E992E00E94D00283E5D6
:1007800092E00197F1F762E089E992E00E94D002DD
:1007900015C080620E9450038BE496E40197F1F744
:1007A0008091A80280620E94500383E592E0019745
:1007B000F1F78091A80280620E9450038091A80204
:1007C00080620E94500384E08093A9028CE00E9422
:1007D000500381E00E9450038BE39FE10197F1F702
:1007E00082E08093AA0286E0DF91CF910C945003BF
:1007F000843008F083E09091AC02891710F08FEFFD
:10080000890FE82FF0E0E756FD4F848980680C944B
:10081000500341E00E94FD0281E090E008950895B8
:1008200080E090E00895009769F0FC0101900020BD
:10083000E9F73197AF01481B590BBC0189E992E0F8
:100840000C94520180E090E008950E94F3081F92FA
:100850000F920FB60F9211242F933F938F939F9374
:10086000AF93BF938091E8019091E901A091EA01D3
:10087000B091EB013091E70123E0230F2D3720F4F5
:100880000196A11DB11D05C026E8230F0296A11DEA
:10089000B11D2093E7018093E8019093E901A093B3
:1008A000EA01B093EB018091EC019091ED01A091F0
:1008B000EE01B091EF010196A11DB11D8093EC01F5
:1008C0009093ED01A093EE01B093EF01BF91AF9132
:1008D0009F918F913F912F910F900FBE0F901F907E
:1008E00018951F920F920FB60F9211242F933F93DA
:1008F0004F935F936F937F938F939F93AF93BF9328
:10090000EF93FF9380EF91E00E94C301FF91EF917D
:10091000BF91AF919F918F917F916F915F914F9117
:100920003F912F910F900FBE0F901F9018951F921F
:100930000F920FB60F9211242F938F939F93EF93E3
:10094000FF93E0910002F09101028081E0910602A4
:10095000F091070282FD12C09081809109028F5FA1
:100960008F7320910A02821751F0E0910902F0E0A2
:10097000E051FE4F958F8093090201C08081FF9165
:10098000EF919F918F912F910F900FBE0F901F901D
:1009900018951F920F920FB60F9211242F933F9329
:1009A0004F935F936F937F938F939F93AF93BF9377
:1009B000EF93FF938091B900887F803609F49CC043
:1009C00068F5883209F45BC090F4803109F454C0B2
:1009D00038F4882309F4F2C0883009F44DC0F2C01D
:1009E000883109F44CC0803209F45DC0EBC080341A
:1009F00009F468C048F4803309F455C0883309F01D
:100A0000E1C08093C001D4C0803509F44FC088355F
:100A100009F45DC0883409F0D5C0D2C0883909F422
:100A2000C3C0A8F4883709F467C038F4883609F4DD
:100A300063C0803709F460C0C5C0883809F4B4C009
:100A4000803909F45FC0803809F0BCC05BC0803BCE
:100A500009F484C038F4803A09F466C0883A09F48D
:100A60007DC0B0C0803C09F4A3C0883C09F4A0C09C
:100A7000883B09F486C0A6C08091E60110C0909121
:100A8000E5018091E401981770F5E091E50181E0BE
:100A90008E0F8093E501F0E0EC53FE4F8081809350
:100AA000BB0085EC82C08093C0018AC0E091E50163
:100AB00081E08E0F8093E5018091BB00F0E0EC5364
:100AC000FE4F80839091E5018091E4016AC0E0913E
:100AD000E50181E08E0F8093E5018091BB00F0E09D
:100AE000EC53FE4F80838091C301811169C081E086
:100AF0008093C20184EA5DC083E08093C1011092BB
:100B0000BF01CFCF8091BF01803208F04DC0E0918E
:100B1000BF0181E08E0F8093BF018091BB00F0E0A8
:100B2000E156FE4F8083BDCF85EC8093BC001092D0
:100B3000C1018091BF01803230F4E091BF01F0E04B
:100B4000E156FE4F10826091BF0170E08FE991E0A5
:100B5000E0E0F0E009951092BF0134C084E080939A
:100B6000C10110929E0110929D01E0E0F0E0099514
:100B700080919D01811105C081E080939D011092BB
:100B80007D01E0919E0181E08E0F80939E01F0E057
:100B9000E358FE4F80818093BB0090919E0180912D
:100BA0009D01981708F47DCF85E88093BC000AC0AA
:100BB00085EC8093BC001092C10104C01092C0016A
:100BC0000E945E02FF91EF91BF91AF919F918F9133
:100BD0007F916F915F914F913F912F910F900FBE39
:100BE0000F901F901895E0EFF1E01382128288EECB
:100BF00093E0A0E0B0E084839583A683B78324E0EC
:100C000031E03183208325EC30E03587248724ECE4
:100C100030E03787268720EC30E0318B208B21ECC9
:100C200030E0338B228B22EC30E0358B248B26ECAA
:100C300030E0378B268B118E128E138E148EEDE8DA
:100C4000F2E01382128284839583A683B78386E1C0
:100C500091E091838083E9E9F2E01382128288E2D5
:100C600091E0918380838CE084838FEF85838BE098
:100C7000868385E0878384E0808783E0818782E0C4
:100C800082871386148615861686178681E00C9453
:100C90005603CF93DF93CDB7DEB7A1970FB6F89485
:100CA000DEBF0FBECDBF789484B5826084BD84B5AD
:100CB000816084BD85B5826085BD85B5816085BD57
:100CC00080916E00816080936E001092810080910F
:100CD0008100826080938100809181008160809397
:100CE0008100809180008160809380008091B100BC
:100CF00084608093B1008091B00081608093B000E7
:100D000080917A00846080937A0080917A0082607A
:100D100080937A0080917A00816080937A0080913C
:100D20007A00806880937A001092C100209A399AE4
:100D300087B18E7787B988E00E9487008FE00E9494
:100D4000870082E00E94560380E391E00E94130432
:100D500081E00E94F803E0910002F091010282E03C
:100D60008083E091FC01F091FD011082E091FE0191
:100D7000F091FF018FEC808310920802E091040251
:100D8000F091050286E08083E0910202F091030277
:100D9000808180618083E0910202F0910302808172
:100DA00088608083E0910202F09103028081806874
:100DB0008083E0910202F091030280818F7D808325
:100DC00068EE73E080E090E00E94180181E00E94EC
:100DD00050038BE39FE10197F1F78AE0882E912C75
:100DE000A12CB12C86B18170806480937C008091AD
:100DF0007A00806480937A0080917A0086FDFCCF2F
:100E0000609178008091790070E0782B072E000CBB
:100E1000880B990B0E94D20720E030E04AEF53E4A0
:100E20000E94360820E030E040E85AE30E9436088D
:100E30000E949A076B017C018B0180E00E94F803FD
:100E400080E491E00E9413040D2C000CEE08FF08D2
:100E5000F7FE21C041E06DE289E992E00E94FD02C7
:100E600022273327A9012C193D094E095F0919A230
:100E7000CE0181967C01CA01B901A50194010E94AD
:100E8000CB08605DF70162937F01211531054105B3
:100E9000510589F715C0A701960119A2CE018196C7
:100EA0007C01CA01B901A50194010E94CB08605DD3
:100EB000F70162937F01211531054105510589F73D
:100EC000C7010E94130469EE89E992E00E940904B7
:100ED0008AE491E00E94130481E00632110554F087
:100EE0000E94F8038CE491E00E941304419A60E0B0
:100EF00088E011C00532110529F00E94F8038CE545
:100F000091E004C00E94F8038CE691E00E94130473
:100F1000289A60E08FE00E94A60060ED77E080E014
:100F200090E00E94180168EE73E080E090E00E947B
:100F3000180158CF0E94A1076894B1110C94300891
:100F400008950E94150888F09F5798F0B92F9927A7
:100F5000B751B0F0E1F0660F771F881F991F1AF0A4
:100F6000BA95C9F714C0B13091F00E942F08B1E0D2
:100F700008950C942F08672F782F8827B85F39F0D1
:100F8000B93FCCF3869577956795B395D9F73EF43D
:100F900090958095709561957F4F8F4F9F4F0895E5
:100FA000E89409C097FB3EF4909580957095619503
:100FB0007F4F8F4F9F4F9923A9F0F92F96E9BB27B9
:100FC0009395F695879577956795B795F111F8CF35
:100FD000FAF4BB0F11F460FF1BC06F5F7F4F8F4FA0
:100FE0009F4F16C0882311F096E911C0772321F096
:100FF0009EE8872F762F05C0662371F096E8862F2E
:1010000070E060E02AF09A95660F771F881FDAF784
:10101000880F9695879597F9089557FD9058440F36
:10102000551F59F05F3F71F04795880F97FB991F47
:1010300061F09F3F79F08795089512161306140604
:10104000551FF2CF4695F1DF08C016161706180691
:10105000991FF1CF86957105610508940895E8946C
:10106000BB2766277727CB0197F908950E94490887
:101070000C94BA080E94AC0838F00E94B30820F023
:10108000952311F00C94A3080C94A90811240C9436
:1010900030080E940D0870F3959FC1F3950F50E042
:1010A000551F629FF001729FBB27F00DB11D639F1A
:1010B000AA27F00DB11DAA1F649F6627B00DA11DC0
:1010C000661F829F2227B00DA11D621F739FB00D66
:1010D000A11D621F839FA00D611D221F749F3327D6
:1010E000A00D611D231F849F600D211D822F762F6F
:1010F0006A2F11249F5750409AF0F1F088234AF04C
:10110000EE0FFF1FBB1F661F771F881F91505040B7
:10111000A9F79E3F510580F00C94A3080C94300869
:101120005F3FE4F3983ED4F3869577956795B7953E
:10113000F795E7959F5FC1F7FE2B880F911D969558
:10114000879597F9089597F99F6780E870E060E0C8
:1011500008959FEF80EC089500240A941616170650
:1011600018060906089500240A9412161306140698
:1011700005060895092E0394000C11F4882352F0FB
:10118000BB0F40F4BF2B11F460FF04C06F5F7F4FB3
:101190008F4F9F4F0895A1E21A2EAA1BBB1BFD0182
:1011A0000DC0AA1FBB1FEE1FFF1FA217B307E40746
:1011B000F50720F0A21BB30BE40BF50B661F771F9E
:1011C000881F991F1A9469F760957095809590957E
:1011D0009B01AC01BD01CF010895EE0FFF1F0590EB
:1011E000F491E02D099481E090E0F8940C94F808D3
:0411F000F894FFCFA1
:1011F40000000000E50152017C013202AD018B01C7
:101204009F0100000000A9029E02100490029702B0
:1012140094029102000000000904520110040F041A
:101224004D6179204170205472756E6720476100CA
:101234004E4849455420444F3A00430057415252C6
:10124400494E47213A484F542020200057415252DA
:10125400494E47213A434F4F4C20200042494E48C3
:0C126400205448554F4E47202020000029
:00000001FF
